{
  "transactions": [
    {
      "hash": "0xaa9a7ffee70c3dacc252e2b65d2e23978d5cf76a8b2e19e53ba9311c19139229",
      "transactionType": "CALL",
      "contractName": null,
      "contractAddress": "0x833589fcd6edb6e08f4c7c32d4f71b54bda02913",
      "function": "approve(address,uint256)",
      "arguments": [
        "0x8Ceb1f3f8c188E969EE2E889B75c0Ee3cD885c19",
        "2000000"
      ],
      "transaction": {
        "from": "0x7fbbe68068a3aa7e479a1e51e792f4c2073b018f",
        "to": "0x833589fcd6edb6e08f4c7c32d4f71b54bda02913",
        "gas": "0x12b1b",
        "value": "0x0",
        "input": "0x095ea7b30000000000000000000000008ceb1f3f8c188e969ee2e889b75c0ee3cd885c1900000000000000000000000000000000000000000000000000000000001e8480",
        "nonce": "0x1d",
        "chainId": "0x2105"
      },
      "additionalContracts": [],
      "isFixedGasLimit": false
    },
    {
      "hash": "0x6df2419750e906a669c20b8794d6643859e322c0a56ead29dde174402144d1a0",
      "transactionType": "CALL",
      "contractName": null,
      "contractAddress": "0x8ceb1f3f8c188e969ee2e889b75c0ee3cd885c19",
      "function": "deposit(uint256,address)",
      "arguments": [
        "2000000",
        "0x7FBbE68068A3Aa7E479A1E51e792F4C2073b018f"
      ],
      "transaction": {
        "from": "0x7fbbe68068a3aa7e479a1e51e792f4c2073b018f",
        "to": "0x8ceb1f3f8c188e969ee2e889b75c0ee3cd885c19",
        "gas": "0x63225",
        "value": "0x0",
        "input": "0x6e553f6500000000000000000000000000000000000000000000000000000000001e84800000000000000000000000007fbbe68068a3aa7e479a1e51e792f4c2073b018f",
        "nonce": "0x1e",
        "chainId": "0x2105"
      },
      "additionalContracts": [],
      "isFixedGasLimit": false
    }
  ],
  "receipts": [
    {
      "status": "0x1",
      "cumulativeGasUsed": "0xb57f98",
      "logs": [
        {
          "address": "0x833589fcd6edb6e08f4c7c32d4f71b54bda02913",
          "topics": [
            "0x8c5be1e5ebec7d5bd14f71427d1e84f3dd0314c0f7b2291e5b200ac8c7c3b925",
            "0x0000000000000000000000007fbbe68068a3aa7e479a1e51e792f4c2073b018f",
            "0x0000000000000000000000008ceb1f3f8c188e969ee2e889b75c0ee3cd885c19"
          ],
          "data": "0x00000000000000000000000000000000000000000000000000000000001e8480",
          "blockHash": "0xa9faff22cdab058ba8bad14318d186f867409a3c45d21f4c9b4d2786ae300da0",
          "blockNumber": "0x2429977",
          "blockTimestamp": "0x690f8fd1",
          "transactionHash": "0xaa9a7ffee70c3dacc252e2b65d2e23978d5cf76a8b2e19e53ba9311c19139229",
          "transactionIndex": "0x4d",
          "logIndex": "0xac",
          "removed": false
        }
      ],
      "logsBloom": "0x00000000000000000000000000000000000000000000000000000000000000000000000000000000000000000000100000000000000000000000000000200000000000000000000000000000000000000000000000080000000000000040000000800000000000000000000000000000000000000000000000000000000000000000000000000000000000000000000000000000000000000000000000000000020000000000000000000000000000000000000000000000000000000000000000000000000000000042000000000040000000000000000000000010000000000010000000000000000000000000000000000000000000000000000000000020",
      "type": "0x2",
      "transactionHash": "0xaa9a7ffee70c3dacc252e2b65d2e23978d5cf76a8b2e19e53ba9311c19139229",
      "transactionIndex": "0x4d",
      "blockHash": "0xa9faff22cdab058ba8bad14318d186f867409a3c45d21f4c9b4d2786ae300da0",
      "blockNumber": "0x2429977",
      "gasUsed": "0xd88d",
      "effectiveGasPrice": "0x4c336",
      "from": "0x7fbbe68068a3aa7e479a1e51e792f4c2073b018f",
      "to": "0x833589fcd6edb6e08f4c7c32d4f71b54bda02913",
      "contractAddress": null,
      "l1BaseFeeScalar": "0x8dd",
      "l1BlobBaseFee": "0x1",
      "l1BlobBaseFeeScalar": "0x101c12",
      "l1Fee": "0x112f2a41",
      "l1GasPrice": "0x4bbc1da",
      "l1GasUsed": "0x640"
    },
    {
      "status": "0x1",
      "cumulativeGasUsed": "0xb9fbf0",
      "logs": [
        {
          "address": "0x833589fcd6edb6e08f4c7c32d4f71b54bda02913",
          "topics": [
            "0xddf252ad1be2c89b69c2b068fc378daa952ba7f163c4a11628f55a4df523b3ef",
            "0x0000000000000000000000007fbbe68068a3aa7e479a1e51e792f4c2073b018f",
            "0x0000000000000000000000008ceb1f3f8c188e969ee2e889b75c0ee3cd885c19"
          ],
          "data": "0x00000000000000000000000000000000000000000000000000000000001e8480",
          "blockHash": "0x17ff87c386feca37f70c673a6be32d5e0f998d6831bc958c4c50c5c5c23bec67",
          "blockNumber": "0x2429977",
          "blockTimestamp": "0x690f8fd1",
          "transactionHash": "0x6df2419750e906a669c20b8794d6643859e322c0a56ead29dde174402144d1a0",
          "transactionIndex": "0x4e",
          "logIndex": "0xad",
          "removed": false
        },
        {
          "address": "0x833589fcd6edb6e08f4c7c32d4f71b54bda02913",
          "topics": [
            "0xddf252ad1be2c89b69c2b068fc378daa952ba7f163c4a11628f55a4df523b3ef",
            "0x0000000000000000000000008ceb1f3f8c188e969ee2e889b75c0ee3cd885c19",
            "0x0000000000000000000000007ea9fac329636f532ae29e1c9ec9a964337bda24"
          ],
          "data": "0x00000000000000000000000000000000000000000000000000000000001e8480",
          "blockHash": "0x17ff87c386feca37f70c673a6be32d5e0f998d6831bc958c4c50c5c5c23bec67",
          "blockNumber": "0x2429977",
          "blockTimestamp": "0x690f8fd1",
          "transactionHash": "0x6df2419750e906a669c20b8794d6643859e322c0a56ead29dde174402144d1a0",
          "transactionIndex": "0x4e",
          "logIndex": "0xae",
          "removed": false
        },
        {
          "address": "0x7ea9fac329636f532ae29e1c9ec9a964337bda24",
          "topics": [
            "0xddf252ad1be2c89b69c2b068fc378daa952ba7f163c4a11628f55a4df523b3ef",
            "0x0000000000000000000000000000000000000000000000000000000000000000",
            "0x0000000000000000000000008ceb1f3f8c188e969ee2e889b75c0ee3cd885c19"
          ],
          "data": "0x00000000000000000000000000000000000000000000000000000000001e8480",
          "blockHash": "0x17ff87c386feca37f70c673a6be32d5e0f998d6831bc958c4c50c5c5c23bec67",
          "blockNumber": "0x2429977",
          "blockTimestamp": "0x690f8fd1",
          "transactionHash": "0x6df2419750e906a669c20b8794d6643859e322c0a56ead29dde174402144d1a0",
          "transactionIndex": "0x4e",
          "logIndex": "0xaf",
          "removed": false
        },
        {
          "address": "0x7ea9fac329636f532ae29e1c9ec9a964337bda24",
          "topics": [
            "0xdcbc1c05240f31ff3ad067ef1ee35ce4997762752e3a095284754544f4c709d7",
            "0x0000000000000000000000008ceb1f3f8c188e969ee2e889b75c0ee3cd885c19",
            "0x0000000000000000000000008ceb1f3f8c188e969ee2e889b75c0ee3cd885c19"
          ],
          "data": "0x00000000000000000000000000000000000000000000000000000000001e848000000000000000000000000000000000000000000000000000000000001e8480",
          "blockHash": "0x17ff87c386feca37f70c673a6be32d5e0f998d6831bc958c4c50c5c5c23bec67",
          "blockNumber": "0x2429977",
          "blockTimestamp": "0x690f8fd1",
          "transactionHash": "0x6df2419750e906a669c20b8794d6643859e322c0a56ead29dde174402144d1a0",
          "transactionIndex": "0x4e",
          "logIndex": "0xb0",
          "removed": false
        },
        {
          "address": "0x7ea9fac329636f532ae29e1c9ec9a964337bda24",
          "topics": [
            "0x5e2b8821ad6e0e26207e0cb4d242d07eeb1cbb1cfd853e645bdcd27cc5484f95",
            "0x000000000000000000000000e9f2a5f9f3c846f29066d7fb3564f8e6b6b2d65b"
          ],
          "data": "0x00000000000000000000000000000000000000000000000000000000000000000000000000000000000000000000000000000000000000000000000000000000",
          "blockHash": "0x17ff87c386feca37f70c673a6be32d5e0f998d6831bc958c4c50c5c5c23bec67",
          "blockNumber": "0x2429977",
          "blockTimestamp": "0x690f8fd1",
          "transactionHash": "0x6df2419750e906a669c20b8794d6643859e322c0a56ead29dde174402144d1a0",
          "transactionIndex": "0x4e",
          "logIndex": "0xb1",
          "removed": false
        },
        {
          "address": "0x8ceb1f3f8c188e969ee2e889b75c0ee3cd885c19",
          "topics": [
            "0x43160376230bd16c1986d8de4c5866304134e1df6fc23764b577e10e0a0b677f"
          ],
          "data": "0x00000000000000000000000000000000000000000000000000000000001e84800000000000000000000000007ea9fac329636f532ae29e1c9ec9a964337bda24",
          "blockHash": "0x17ff87c386feca37f70c673a6be32d5e0f998d6831bc958c4c50c5c5c23bec67",
          "blockNumber": "0x2429977",
          "blockTimestamp": "0x690f8fd1",
          "transactionHash": "0x6df2419750e906a669c20b8794d6643859e322c0a56ead29dde174402144d1a0",
          "transactionIndex": "0x4e",
          "logIndex": "0xb2",
          "removed": false
        },
        {
          "address": "0x8ceb1f3f8c188e969ee2e889b75c0ee3cd885c19",
          "topics": [
            "0xddf252ad1be2c89b69c2b068fc378daa952ba7f163c4a11628f55a4df523b3ef",
            "0x0000000000000000000000000000000000000000000000000000000000000000",
            "0x0000000000000000000000007fbbe68068a3aa7e479a1e51e792f4c2073b018f"
          ],
          "data": "0x00000000000000000000000000000000000000000000000000000000001e8480",
          "blockHash": "0x17ff87c386feca37f70c673a6be32d5e0f998d6831bc958c4c50c5c5c23bec67",
          "blockNumber": "0x2429977",
          "blockTimestamp": "0x690f8fd1",
          "transactionHash": "0x6df2419750e906a669c20b8794d6643859e322c0a56ead29dde174402144d1a0",
          "transactionIndex": "0x4e",
          "logIndex": "0xb3",
          "removed": false
        },
        {
          "address": "0x8ceb1f3f8c188e969ee2e889b75c0ee3cd885c19",
          "topics": [
            "0xdcbc1c05240f31ff3ad067ef1ee35ce4997762752e3a095284754544f4c709d7",
            "0x0000000000000000000000007fbbe68068a3aa7e479a1e51e792f4c2073b018f",
            "0x0000000000000000000000007fbbe68068a3aa7e479a1e51e792f4c2073b018f"
          ],
          "data": "0x00000000000000000000000000000000000000000000000000000000001e848000000000000000000000000000000000000000000000000000000000001e8480",
          "blockHash": "0x17ff87c386feca37f70c673a6be32d5e0f998d6831bc958c4c50c5c5c23bec67",
          "blockNumber": "0x2429977",
          "blockTimestamp": "0x690f8fd1",
          "transactionHash": "0x6df2419750e906a669c20b8794d6643859e322c0a56ead29dde174402144d1a0",
          "transactionIndex": "0x4e",
          "logIndex": "0xb4",
          "removed": false
        }
      ],
      "logsBloom": "0x000400000000000000000000000000000000000000000000000000000000000000000000000000000000000000001000000200000400000000000000000000000001004000000000000000080002000000000000000a0000000000001040000200800000120000000000000000000800000000000004000000000010000000000000000000080000000000000000000000008000000000000000000000000000000000000004200000000000000000000082000000000000000000000000000000000002000000000042000000000040000000000008080000000010000020000000000000000002000000000000800000000000000000000000000000000020",
      "type": "0x2",
      "transactionHash": "0x6df2419750e906a669c20b8794d6643859e322c0a56ead29dde174402144d1a0",
      "transactionIndex": "0x4e",
      "blockHash": "0x17ff87c386feca37f70c673a6be32d5e0f998d6831bc958c4c50c5c5c23bec67",
      "blockNumber": "0x2429977",
      "gasUsed": "0x47c58",
      "effectiveGasPrice": "0x4c336",
      "from": "0x7fbbe68068a3aa7e479a1e51e792f4c2073b018f",
      "to": "0x8ceb1f3f8c188e969ee2e889b75c0ee3cd885c19",
      "contractAddress": null,
      "l1BaseFeeScalar": "0x8dd",
      "l1BlobBaseFee": "0x1",
      "l1BlobBaseFeeScalar": "0x101c12",
      "l1Fee": "0x112f2a41",
      "l1GasPrice": "0x4bbc1da",
      "l1GasUsed": "0x640"
    }
  ],
  "libraries": [],
  "pending": [],
  "returns": {},
  "timestamp": 1762627535,
  "chain": 8453,
  "commit": "18521c5"
}