{
  "transactions": [
    {
      "hash": "0xdddd0cf913640eda9e3b236b3901455e53b34eb424464e623360cf8f5205493d",
      "transactionType": "CALL",
      "contractName": null,
      "contractAddress": "0x8ceb1f3f8c188e969ee2e889b75c0ee3cd885c19",
      "function": "withdraw(uint256,address,address)",
      "arguments": [
        "1000000",
        "0x7FBbE68068A3Aa7E479A1E51e792F4C2073b018f",
        "0x7FBbE68068A3Aa7E479A1E51e792F4C2073b018f"
      ],
      "transaction": {
        "from": "0x7fbbe68068a3aa7e479a1e51e792f4c2073b018f",
        "to": "0x8ceb1f3f8c188e969ee2e889b75c0ee3cd885c19",
        "gas": "0x2e023",
        "value": "0x0",
        "input": "0xb460af9400000000000000000000000000000000000000000000000000000000000f42400000000000000000000000007fbbe68068a3aa7e479a1e51e792f4c2073b018f0000000000000000000000007fbbe68068a3aa7e479a1e51e792f4c2073b018f",
        "nonce": "0x1c",
        "chainId": "0x2105"
      },
      "additionalContracts": [],
      "isFixedGasLimit": false
    }
  ],
  "receipts": [
    {
      "status": "0x1",
      "cumulativeGasUsed": "0x1871d8c",
      "logs": [
        {
          "address": "0x7ea9fac329636f532ae29e1c9ec9a964337bda24",
          "topics": [
            "0xddf252ad1be2c89b69c2b068fc378daa952ba7f163c4a11628f55a4df523b3ef",
            "0x0000000000000000000000008ceb1f3f8c188e969ee2e889b75c0ee3cd885c19",
            "0x0000000000000000000000000000000000000000000000000000000000000000"
          ],
          "data": "0x00000000000000000000000000000000000000000000000000000000000f4240",
          "blockHash": "0xa538b3fd22ee63692b37f766f8f441afd21f8ac79b71452520771fac9389ec6a",
          "blockNumber": "0x242995a",
          "blockTimestamp": "0x690f8f97",
          "transactionHash": "0xdddd0cf913640eda9e3b236b3901455e53b34eb424464e623360cf8f5205493d",
          "transactionIndex": "0x56",
          "logIndex": "0x3ab",
          "removed": false
        },
        {
          "address": "0x833589fcd6edb6e08f4c7c32d4f71b54bda02913",
          "topics": [
            "0xddf252ad1be2c89b69c2b068fc378daa952ba7f163c4a11628f55a4df523b3ef",
            "0x0000000000000000000000007ea9fac329636f532ae29e1c9ec9a964337bda24",
            "0x0000000000000000000000008ceb1f3f8c188e969ee2e889b75c0ee3cd885c19"
          ],
          "data": "0x00000000000000000000000000000000000000000000000000000000000f4240",
          "blockHash": "0xa538b3fd22ee63692b37f766f8f441afd21f8ac79b71452520771fac9389ec6a",
          "blockNumber": "0x242995a",
          "blockTimestamp": "0x690f8f97",
          "transactionHash": "0xdddd0cf913640eda9e3b236b3901455e53b34eb424464e623360cf8f5205493d",
          "transactionIndex": "0x56",
          "logIndex": "0x3ac",
          "removed": false
        },
        {
          "address": "0x7ea9fac329636f532ae29e1c9ec9a964337bda24",
          "topics": [
            "0xfbde797d201c681b91056529119e0b02407c7bb96a4a2c75c01fc9667232c8db",
            "0x0000000000000000000000008ceb1f3f8c188e969ee2e889b75c0ee3cd885c19",
            "0x0000000000000000000000008ceb1f3f8c188e969ee2e889b75c0ee3cd885c19",
            "0x0000000000000000000000008ceb1f3f8c188e969ee2e889b75c0ee3cd885c19"
          ],
          "data": "0x00000000000000000000000000000000000000000000000000000000000f424000000000000000000000000000000000000000000000000000000000000f4240",
          "blockHash": "0xa538b3fd22ee63692b37f766f8f441afd21f8ac79b71452520771fac9389ec6a",
          "blockNumber": "0x242995a",
          "blockTimestamp": "0x690f8f97",
          "transactionHash": "0xdddd0cf913640eda9e3b236b3901455e53b34eb424464e623360cf8f5205493d",
          "transactionIndex": "0x56",
          "logIndex": "0x3ad",
          "removed": false
        },
        {
          "address": "0x8ceb1f3f8c188e969ee2e889b75c0ee3cd885c19",
          "topics": [
            "0x4a37b25aab49761ecf63117fe82b98d750917451133cf797507bc9fb5b96044a"
          ],
          "data": "0x00000000000000000000000000000000000000000000000000000000000f4240",
          "blockHash": "0xa538b3fd22ee63692b37f766f8f441afd21f8ac79b71452520771fac9389ec6a",
          "blockNumber": "0x242995a",
          "blockTimestamp": "0x690f8f97",
          "transactionHash": "0xdddd0cf913640eda9e3b236b3901455e53b34eb424464e623360cf8f5205493d",
          "transactionIndex": "0x56",
          "logIndex": "0x3ae",
          "removed": false
        },
        {
          "address": "0x8ceb1f3f8c188e969ee2e889b75c0ee3cd885c19",
          "topics": [
            "0xddf252ad1be2c89b69c2b068fc378daa952ba7f163c4a11628f55a4df523b3ef",
            "0x0000000000000000000000007fbbe68068a3aa7e479a1e51e792f4c2073b018f",
            "0x0000000000000000000000000000000000000000000000000000000000000000"
          ],
          "data": "0x00000000000000000000000000000000000000000000000000000000000f4240",
          "blockHash": "0xa538b3fd22ee63692b37f766f8f441afd21f8ac79b71452520771fac9389ec6a",
          "blockNumber": "0x242995a",
          "blockTimestamp": "0x690f8f97",
          "transactionHash": "0xdddd0cf913640eda9e3b236b3901455e53b34eb424464e623360cf8f5205493d",
          "transactionIndex": "0x56",
          "logIndex": "0x3af",
          "removed": false
        },
        {
          "address": "0x833589fcd6edb6e08f4c7c32d4f71b54bda02913",
          "topics": [
            "0xddf252ad1be2c89b69c2b068fc378daa952ba7f163c4a11628f55a4df523b3ef",
            "0x0000000000000000000000008ceb1f3f8c188e969ee2e889b75c0ee3cd885c19",
            "0x0000000000000000000000007fbbe68068a3aa7e479a1e51e792f4c2073b018f"
          ],
          "data": "0x00000000000000000000000000000000000000000000000000000000000f4240",
          "blockHash": "0xa538b3fd22ee63692b37f766f8f441afd21f8ac79b71452520771fac9389ec6a",
          "blockNumber": "0x242995a",
          "blockTimestamp": "0x690f8f97",
          "transactionHash": "0xdddd0cf913640eda9e3b236b3901455e53b34eb424464e623360cf8f5205493d",
          "transactionIndex": "0x56",
          "logIndex": "0x3b0",
          "removed": false
        },
        {
          "address": "0x8ceb1f3f8c188e969ee2e889b75c0ee3cd885c19",
          "topics": [
            "0xfbde797d201c681b91056529119e0b02407c7bb96a4a2c75c01fc9667232c8db",
            "0x0000000000000000000000007fbbe68068a3aa7e479a1e51e792f4c2073b018f",
            "0x0000000000000000000000007fbbe68068a3aa7e479a1e51e792f4c2073b018f",
            "0x0000000000000000000000007fbbe68068a3aa7e479a1e51e792f4c2073b018f"
          ],
          "data": "0x00000000000000000000000000000000000000000000000000000000000f424000000000000000000000000000000000000000000000000000000000000f4240",
          "blockHash": "0xa538b3fd22ee63692b37f766f8f441afd21f8ac79b71452520771fac9389ec6a",
          "blockNumber": "0x242995a",
          "blockTimestamp": "0x690f8f97",
          "transactionHash": "0xdddd0cf913640eda9e3b236b3901455e53b34eb424464e623360cf8f5205493d",
          "transactionIndex": "0x56",
          "logIndex": "0x3b1",
          "removed": false
        }
      ],
      "logsBloom": "0x00000000000000400000000000000000000000000000002000000000000000000000000000000000000000000000100000000000000000002000000000000000000100000000000000000008000200000000000000080000000000001040000000800000020000000000000000000800000000000000000000000010000000000000000000080000000000000000000000008000000000000000000000000000000000000004000000000000000000020080000000000000000000000000040000000002000000000042000000000040000000000000080000000010000020000000000000000000000000000000800000000000000000000000000000000020",
      "type": "0x2",
      "transactionHash": "0xdddd0cf913640eda9e3b236b3901455e53b34eb424464e623360cf8f5205493d",
      "transactionIndex": "0x56",
      "blockHash": "0xa538b3fd22ee63692b37f766f8f441afd21f8ac79b71452520771fac9389ec6a",
      "blockNumber": "0x242995a",
      "gasUsed": "0x214f4",
      "effectiveGasPrice": "0x4df9b",
      "from": "0x7fbbe68068a3aa7e479a1e51e792f4c2073b018f",
      "to": "0x8ceb1f3f8c188e969ee2e889b75c0ee3cd885c19",
      "contractAddress": null,
      "l1BaseFeeScalar": "0x8dd",
      "l1BlobBaseFee": "0x1",
      "l1BlobBaseFeeScalar": "0x101c12",
      "l1Fee": "0x116b4bc7",
      "l1GasPrice": "0x4cc5206",
      "l1GasUsed": "0x640"
    }
  ],
  "libraries": [],
  "pending": [],
  "returns": {},
  "timestamp": 1762627477,
  "chain": 8453,
  "commit": "18521c5"
}