{
  "transactions": [
    {
      "hash": "0xf8a7c002c23c47ab97cc3c686d612d7f829728a6467cee2d74b2916608d4fb0d",
      "transactionType": "CALL",
      "contractName": null,
      "contractAddress": "0x833589fcd6edb6e08f4c7c32d4f71b54bda02913",
      "function": "approve(address,uint256)",
      "arguments": [
        "0x8Ceb1f3f8c188E969EE2E889B75c0Ee3cD885c19",
        "1000000"
      ],
      "transaction": {
        "from": "0x7fbbe68068a3aa7e479a1e51e792f4c2073b018f",
        "to": "0x833589fcd6edb6e08f4c7c32d4f71b54bda02913",
        "gas": "0x12b1b",
        "value": "0x0",
        "input": "0x095ea7b30000000000000000000000008ceb1f3f8c188e969ee2e889b75c0ee3cd885c1900000000000000000000000000000000000000000000000000000000000f4240",
        "nonce": "0x12",
        "chainId": "0x2105"
      },
      "additionalContracts": [],
      "isFixedGasLimit": false
    },
    {
      "hash": "0x7c6660bcffeb429ca4fbfa325916875da19bc322e5ddfd6904117537d756ce69",
      "transactionType": "CALL",
      "contractName": null,
      "contractAddress": "0x8ceb1f3f8c188e969ee2e889b75c0ee3cd885c19",
      "function": "deposit(uint256,address)",
      "arguments": [
        "1000000",
        "0x7FBbE68068A3Aa7E479A1E51e792F4C2073b018f"
      ],
      "transaction": {
        "from": "0x7fbbe68068a3aa7e479a1e51e792f4c2073b018f",
        "to": "0x8ceb1f3f8c188e969ee2e889b75c0ee3cd885c19",
        "gas": "0x34837",
        "value": "0x0",
        "input": "0x6e553f6500000000000000000000000000000000000000000000000000000000000f42400000000000000000000000007fbbe68068a3aa7e479a1e51e792f4c2073b018f",
        "nonce": "0x13",
        "chainId": "0x2105"
      },
      "additionalContracts": [],
      "isFixedGasLimit": false
    }
  ],
  "receipts": [
    {
      "status": "0x1",
      "cumulativeGasUsed": "0x28f0e1d",
      "logs": [
        {
          "address": "0x833589fcd6edb6e08f4c7c32d4f71b54bda02913",
          "topics": [
            "0x8c5be1e5ebec7d5bd14f71427d1e84f3dd0314c0f7b2291e5b200ac8c7c3b925",
            "0x0000000000000000000000007fbbe68068a3aa7e479a1e51e792f4c2073b018f",
            "0x0000000000000000000000008ceb1f3f8c188e969ee2e889b75c0ee3cd885c19"
          ],
          "data": "0x00000000000000000000000000000000000000000000000000000000000f4240",
          "blockHash": "0x576eabd42cbcb180a4e3c12827848bc8c61a237a99367b306587b5b270d3355b",
          "blockNumber": "0x24256b5",
          "blockTimestamp": "0x690f0a4d",
          "transactionHash": "0xf8a7c002c23c47ab97cc3c686d612d7f829728a6467cee2d74b2916608d4fb0d",
          "transactionIndex": "0xfc",
          "logIndex": "0x1e7",
          "removed": false
        }
      ],
      "logsBloom": "0x00000000000000000000000000000000000000000000000000000000000000000000000000000000000000000000100000000000000000000000000000200000000000000000000000000000000000000000000000080000000000000040000000800000000000000000000000000000000000000000000000000000000000000000000000000000000000000000000000000000000000000000000000000000020000000000000000000000000000000000000000000000000000000000000000000000000000000042000000000040000000000000000000000010000000000010000000000000000000000000000000000000000000000000000000000020",
      "type": "0x2",
      "transactionHash": "0xf8a7c002c23c47ab97cc3c686d612d7f829728a6467cee2d74b2916608d4fb0d",
      "transactionIndex": "0xfc",
      "blockHash": "0x576eabd42cbcb180a4e3c12827848bc8c61a237a99367b306587b5b270d3355b",
      "blockNumber": "0x24256b5",
      "gasUsed": "0xd88d",
      "effectiveGasPrice": "0xa8592",
      "from": "0x7fbbe68068a3aa7e479a1e51e792f4c2073b018f",
      "to": "0x833589fcd6edb6e08f4c7c32d4f71b54bda02913",
      "contractAddress": null,
      "l1BaseFeeScalar": "0x8dd",
      "l1BlobBaseFee": "0x1",
      "l1BlobBaseFeeScalar": "0x101c12",
      "l1Fee": "0x17006d5d",
      "l1GasPrice": "0x655fa22",
      "l1GasUsed": "0x640"
    },
    {
      "status": "0x1",
      "cumulativeGasUsed": "0x2d8d2c8",
      "logs": [
        {
          "address": "0x833589fcd6edb6e08f4c7c32d4f71b54bda02913",
          "topics": [
            "0xddf252ad1be2c89b69c2b068fc378daa952ba7f163c4a11628f55a4df523b3ef",
            "0x0000000000000000000000007fbbe68068a3aa7e479a1e51e792f4c2073b018f",
            "0x0000000000000000000000008ceb1f3f8c188e969ee2e889b75c0ee3cd885c19"
          ],
          "data": "0x00000000000000000000000000000000000000000000000000000000000f4240",
          "blockHash": "0x7fd126e75560e3e4a779c257589f3c1a9e54307e8e74941a05b701246bcbdf9b",
          "blockNumber": "0x24256b5",
          "blockTimestamp": "0x690f0a4d",
          "transactionHash": "0x7c6660bcffeb429ca4fbfa325916875da19bc322e5ddfd6904117537d756ce69",
          "transactionIndex": "0x117",
          "logIndex": "0x213",
          "removed": false
        },
        {
          "address": "0x833589fcd6edb6e08f4c7c32d4f71b54bda02913",
          "topics": [
            "0xddf252ad1be2c89b69c2b068fc378daa952ba7f163c4a11628f55a4df523b3ef",
            "0x0000000000000000000000008ceb1f3f8c188e969ee2e889b75c0ee3cd885c19",
            "0x0000000000000000000000007ea9fac329636f532ae29e1c9ec9a964337bda24"
          ],
          "data": "0x00000000000000000000000000000000000000000000000000000000000f4240",
          "blockHash": "0x7fd126e75560e3e4a779c257589f3c1a9e54307e8e74941a05b701246bcbdf9b",
          "blockNumber": "0x24256b5",
          "blockTimestamp": "0x690f0a4d",
          "transactionHash": "0x7c6660bcffeb429ca4fbfa325916875da19bc322e5ddfd6904117537d756ce69",
          "transactionIndex": "0x117",
          "logIndex": "0x214",
          "removed": false
        },
        {
          "address": "0x7ea9fac329636f532ae29e1c9ec9a964337bda24",
          "topics": [
            "0xddf252ad1be2c89b69c2b068fc378daa952ba7f163c4a11628f55a4df523b3ef",
            "0x0000000000000000000000000000000000000000000000000000000000000000",
            "0x0000000000000000000000008ceb1f3f8c188e969ee2e889b75c0ee3cd885c19"
          ],
          "data": "0x00000000000000000000000000000000000000000000000000000000000f4240",
          "blockHash": "0x7fd126e75560e3e4a779c257589f3c1a9e54307e8e74941a05b701246bcbdf9b",
          "blockNumber": "0x24256b5",
          "blockTimestamp": "0x690f0a4d",
          "transactionHash": "0x7c6660bcffeb429ca4fbfa325916875da19bc322e5ddfd6904117537d756ce69",
          "transactionIndex": "0x117",
          "logIndex": "0x215",
          "removed": false
        },
        {
          "address": "0x7ea9fac329636f532ae29e1c9ec9a964337bda24",
          "topics": [
            "0xdcbc1c05240f31ff3ad067ef1ee35ce4997762752e3a095284754544f4c709d7",
            "0x0000000000000000000000008ceb1f3f8c188e969ee2e889b75c0ee3cd885c19",
            "0x0000000000000000000000008ceb1f3f8c188e969ee2e889b75c0ee3cd885c19"
          ],
          "data": "0x00000000000000000000000000000000000000000000000000000000000f424000000000000000000000000000000000000000000000000000000000000f4240",
          "blockHash": "0x7fd126e75560e3e4a779c257589f3c1a9e54307e8e74941a05b701246bcbdf9b",
          "blockNumber": "0x24256b5",
          "blockTimestamp": "0x690f0a4d",
          "transactionHash": "0x7c6660bcffeb429ca4fbfa325916875da19bc322e5ddfd6904117537d756ce69",
          "transactionIndex": "0x117",
          "logIndex": "0x216",
          "removed": false
        },
        {
          "address": "0x8ceb1f3f8c188e969ee2e889b75c0ee3cd885c19",
          "topics": [
            "0x43160376230bd16c1986d8de4c5866304134e1df6fc23764b577e10e0a0b677f"
          ],
          "data": "0x00000000000000000000000000000000000000000000000000000000000f42400000000000000000000000007ea9fac329636f532ae29e1c9ec9a964337bda24",
          "blockHash": "0x7fd126e75560e3e4a779c257589f3c1a9e54307e8e74941a05b701246bcbdf9b",
          "blockNumber": "0x24256b5",
          "blockTimestamp": "0x690f0a4d",
          "transactionHash": "0x7c6660bcffeb429ca4fbfa325916875da19bc322e5ddfd6904117537d756ce69",
          "transactionIndex": "0x117",
          "logIndex": "0x217",
          "removed": false
        },
        {
          "address": "0x8ceb1f3f8c188e969ee2e889b75c0ee3cd885c19",
          "topics": [
            "0xddf252ad1be2c89b69c2b068fc378daa952ba7f163c4a11628f55a4df523b3ef",
            "0x0000000000000000000000000000000000000000000000000000000000000000",
            "0x0000000000000000000000007fbbe68068a3aa7e479a1e51e792f4c2073b018f"
          ],
          "data": "0x00000000000000000000000000000000000000000000000000000000000f4240",
          "blockHash": "0x7fd126e75560e3e4a779c257589f3c1a9e54307e8e74941a05b701246bcbdf9b",
          "blockNumber": "0x24256b5",
          "blockTimestamp": "0x690f0a4d",
          "transactionHash": "0x7c6660bcffeb429ca4fbfa325916875da19bc322e5ddfd6904117537d756ce69",
          "transactionIndex": "0x117",
          "logIndex": "0x218",
          "removed": false
        },
        {
          "address": "0x8ceb1f3f8c188e969ee2e889b75c0ee3cd885c19",
          "topics": [
            "0xdcbc1c05240f31ff3ad067ef1ee35ce4997762752e3a095284754544f4c709d7",
            "0x0000000000000000000000007fbbe68068a3aa7e479a1e51e792f4c2073b018f",
            "0x0000000000000000000000007fbbe68068a3aa7e479a1e51e792f4c2073b018f"
          ],
          "data": "0x00000000000000000000000000000000000000000000000000000000000f424000000000000000000000000000000000000000000000000000000000000f4240",
          "blockHash": "0x7fd126e75560e3e4a779c257589f3c1a9e54307e8e74941a05b701246bcbdf9b",
          "blockNumber": "0x24256b5",
          "blockTimestamp": "0x690f0a4d",
          "transactionHash": "0x7c6660bcffeb429ca4fbfa325916875da19bc322e5ddfd6904117537d756ce69",
          "transactionIndex": "0x117",
          "logIndex": "0x219",
          "removed": false
        }
      ],
      "logsBloom": "0x00000000000000000000000000000000000000000000000000000000000000000000000000000000000000000000100000020000040000000000000000000000000100400000000000000008000200000000000000080000000000001040000000800000120000000000000000000800000000000004000000000010000000000000000000080000000000000000000000008000000000000000000000000000000000000004000000000000000000000080000000000000000000000000000000000002000000000042000000000040000000000008080000000010000020000000000000000000000000000000800000000000000000000000000000000020",
      "type": "0x2",
      "transactionHash": "0x7c6660bcffeb429ca4fbfa325916875da19bc322e5ddfd6904117537d756ce69",
      "transactionIndex": "0x117",
      "blockHash": "0x7fd126e75560e3e4a779c257589f3c1a9e54307e8e74941a05b701246bcbdf9b",
      "blockNumber": "0x24256b5",
      "gasUsed": "0x23e82",
      "effectiveGasPrice": "0xa8592",
      "from": "0x7fbbe68068a3aa7e479a1e51e792f4c2073b018f",
      "to": "0x8ceb1f3f8c188e969ee2e889b75c0ee3cd885c19",
      "contractAddress": null,
      "l1BaseFeeScalar": "0x8dd",
      "l1BlobBaseFee": "0x1",
      "l1BlobBaseFeeScalar": "0x101c12",
      "l1Fee": "0x17006d5d",
      "l1GasPrice": "0x655fa22",
      "l1GasUsed": "0x640"
    }
  ],
  "libraries": [],
  "pending": [],
  "returns": {},
  "timestamp": 1762593356,
  "chain": 8453,
  "commit": "db00e48"
}