{
  "transactions": [
    {
      "hash": "0x32635ed71b20330af8dd375c9912b0ba5130e051ca9b9522b6cbe08f3220d38d",
      "transactionType": "CALL",
      "contractName": null,
      "contractAddress": "0x8ceb1f3f8c188e969ee2e889b75c0ee3cd885c19",
      "function": "withdraw(uint256,address,address)",
      "arguments": [
        "2000000",
        "0x7FBbE68068A3Aa7E479A1E51e792F4C2073b018f",
        "0x7FBbE68068A3Aa7E479A1E51e792F4C2073b018f"
      ],
      "transaction": {
        "from": "0x7fbbe68068a3aa7e479a1e51e792f4c2073b018f",
        "to": "0x8ceb1f3f8c188e969ee2e889b75c0ee3cd885c19",
        "gas": "0x30e95",
        "value": "0x0",
        "input": "0xb460af9400000000000000000000000000000000000000000000000000000000001e84800000000000000000000000007fbbe68068a3aa7e479a1e51e792f4c2073b018f0000000000000000000000007fbbe68068a3aa7e479a1e51e792f4c2073b018f",
        "nonce": "0x1b",
        "chainId": "0x2105"
      },
      "additionalContracts": [],
      "isFixedGasLimit": false
    }
  ],
  "receipts": [
    {
      "status": "0x1",
      "cumulativeGasUsed": "0x4f65b14",
      "logs": [
        {
          "address": "0x7ea9fac329636f532ae29e1c9ec9a964337bda24",
          "topics": [
            "0xddf252ad1be2c89b69c2b068fc378daa952ba7f163c4a11628f55a4df523b3ef",
            "0x0000000000000000000000008ceb1f3f8c188e969ee2e889b75c0ee3cd885c19",
            "0x0000000000000000000000000000000000000000000000000000000000000000"
          ],
          "data": "0x00000000000000000000000000000000000000000000000000000000001e8480",
          "blockHash": "0x65563d9e59d1536a46ca17fdbbe9ba0bca48bb84b5e06633e15587604c44e255",
          "blockNumber": "0x2429921",
          "blockTimestamp": "0x690f8f25",
          "transactionHash": "0x32635ed71b20330af8dd375c9912b0ba5130e051ca9b9522b6cbe08f3220d38d",
          "transactionIndex": "0x157",
          "logIndex": "0x849",
          "removed": false
        },
        {
          "address": "0x833589fcd6edb6e08f4c7c32d4f71b54bda02913",
          "topics": [
            "0xddf252ad1be2c89b69c2b068fc378daa952ba7f163c4a11628f55a4df523b3ef",
            "0x0000000000000000000000007ea9fac329636f532ae29e1c9ec9a964337bda24",
            "0x0000000000000000000000008ceb1f3f8c188e969ee2e889b75c0ee3cd885c19"
          ],
          "data": "0x00000000000000000000000000000000000000000000000000000000001e8480",
          "blockHash": "0x65563d9e59d1536a46ca17fdbbe9ba0bca48bb84b5e06633e15587604c44e255",
          "blockNumber": "0x2429921",
          "blockTimestamp": "0x690f8f25",
          "transactionHash": "0x32635ed71b20330af8dd375c9912b0ba5130e051ca9b9522b6cbe08f3220d38d",
          "transactionIndex": "0x157",
          "logIndex": "0x84a",
          "removed": false
        },
        {
          "address": "0x7ea9fac329636f532ae29e1c9ec9a964337bda24",
          "topics": [
            "0xfbde797d201c681b91056529119e0b02407c7bb96a4a2c75c01fc9667232c8db",
            "0x0000000000000000000000008ceb1f3f8c188e969ee2e889b75c0ee3cd885c19",
            "0x0000000000000000000000008ceb1f3f8c188e969ee2e889b75c0ee3cd885c19",
            "0x0000000000000000000000008ceb1f3f8c188e969ee2e889b75c0ee3cd885c19"
          ],
          "data": "0x00000000000000000000000000000000000000000000000000000000001e848000000000000000000000000000000000000000000000000000000000001e8480",
          "blockHash": "0x65563d9e59d1536a46ca17fdbbe9ba0bca48bb84b5e06633e15587604c44e255",
          "blockNumber": "0x2429921",
          "blockTimestamp": "0x690f8f25",
          "transactionHash": "0x32635ed71b20330af8dd375c9912b0ba5130e051ca9b9522b6cbe08f3220d38d",
          "transactionIndex": "0x157",
          "logIndex": "0x84b",
          "removed": false
        },
        {
          "address": "0x8ceb1f3f8c188e969ee2e889b75c0ee3cd885c19",
          "topics": [
            "0x4a37b25aab49761ecf63117fe82b98d750917451133cf797507bc9fb5b96044a"
          ],
          "data": "0x00000000000000000000000000000000000000000000000000000000001e8480",
          "blockHash": "0x65563d9e59d1536a46ca17fdbbe9ba0bca48bb84b5e06633e15587604c44e255",
          "blockNumber": "0x2429921",
          "blockTimestamp": "0x690f8f25",
          "transactionHash": "0x32635ed71b20330af8dd375c9912b0ba5130e051ca9b9522b6cbe08f3220d38d",
          "transactionIndex": "0x157",
          "logIndex": "0x84c",
          "removed": false
        },
        {
          "address": "0x8ceb1f3f8c188e969ee2e889b75c0ee3cd885c19",
          "topics": [
            "0xddf252ad1be2c89b69c2b068fc378daa952ba7f163c4a11628f55a4df523b3ef",
            "0x0000000000000000000000007fbbe68068a3aa7e479a1e51e792f4c2073b018f",
            "0x0000000000000000000000000000000000000000000000000000000000000000"
          ],
          "data": "0x00000000000000000000000000000000000000000000000000000000001e8480",
          "blockHash": "0x65563d9e59d1536a46ca17fdbbe9ba0bca48bb84b5e06633e15587604c44e255",
          "blockNumber": "0x2429921",
          "blockTimestamp": "0x690f8f25",
          "transactionHash": "0x32635ed71b20330af8dd375c9912b0ba5130e051ca9b9522b6cbe08f3220d38d",
          "transactionIndex": "0x157",
          "logIndex": "0x84d",
          "removed": false
        },
        {
          "address": "0x833589fcd6edb6e08f4c7c32d4f71b54bda02913",
          "topics": [
            "0xddf252ad1be2c89b69c2b068fc378daa952ba7f163c4a11628f55a4df523b3ef",
            "0x0000000000000000000000008ceb1f3f8c188e969ee2e889b75c0ee3cd885c19",
            "0x0000000000000000000000007fbbe68068a3aa7e479a1e51e792f4c2073b018f"
          ],
          "data": "0x00000000000000000000000000000000000000000000000000000000001e8480",
          "blockHash": "0x65563d9e59d1536a46ca17fdbbe9ba0bca48bb84b5e06633e15587604c44e255",
          "blockNumber": "0x2429921",
          "blockTimestamp": "0x690f8f25",
          "transactionHash": "0x32635ed71b20330af8dd375c9912b0ba5130e051ca9b9522b6cbe08f3220d38d",
          "transactionIndex": "0x157",
          "logIndex": "0x84e",
          "removed": false
        },
        {
          "address": "0x8ceb1f3f8c188e969ee2e889b75c0ee3cd885c19",
          "topics": [
            "0xfbde797d201c681b91056529119e0b02407c7bb96a4a2c75c01fc9667232c8db",
            "0x0000000000000000000000007fbbe68068a3aa7e479a1e51e792f4c2073b018f",
            "0x0000000000000000000000007fbbe68068a3aa7e479a1e51e792f4c2073b018f",
            "0x0000000000000000000000007fbbe68068a3aa7e479a1e51e792f4c2073b018f"
          ],
          "data": "0x00000000000000000000000000000000000000000000000000000000001e848000000000000000000000000000000000000000000000000000000000001e8480",
          "blockHash": "0x65563d9e59d1536a46ca17fdbbe9ba0bca48bb84b5e06633e15587604c44e255",
          "blockNumber": "0x2429921",
          "blockTimestamp": "0x690f8f25",
          "transactionHash": "0x32635ed71b20330af8dd375c9912b0ba5130e051ca9b9522b6cbe08f3220d38d",
          "transactionIndex": "0x157",
          "logIndex": "0x84f",
          "removed": false
        }
      ],
      "logsBloom": "0x00000000000000400000000000000000000000000000002000000000000000000000000000000000000000000000100000000000000000002000000000000000000100000000000000000008000200000000000000080000000000001040000000800000020000000000000000000800000000000000000000000010000000000000000000080000000000000000000000008000000000000000000000000000000000000004000000000000000000020080000000000000000000000000040000000002000000000042000000000040000000000000080000000010000020000000000000000000000000000000800000000000000000000000000000000020",
      "type": "0x2",
      "transactionHash": "0x32635ed71b20330af8dd375c9912b0ba5130e051ca9b9522b6cbe08f3220d38d",
      "transactionIndex": "0x157",
      "blockHash": "0x65563d9e59d1536a46ca17fdbbe9ba0bca48bb84b5e06633e15587604c44e255",
      "blockNumber": "0x2429921",
      "gasUsed": "0x23694",
      "effectiveGasPrice": "0xb4e3c",
      "from": "0x7fbbe68068a3aa7e479a1e51e792f4c2073b018f",
      "to": "0x8ceb1f3f8c188e969ee2e889b75c0ee3cd885c19",
      "contractAddress": null,
      "l1BaseFeeScalar": "0x8dd",
      "l1BlobBaseFee": "0x1",
      "l1BlobBaseFeeScalar": "0x101c12",
      "l1Fee": "0x105a26f4",
      "l1GasPrice": "0x481151c",
      "l1GasUsed": "0x640"
    }
  ],
  "libraries": [],
  "pending": [],
  "returns": {},
  "timestamp": 1762627372,
  "chain": 8453,
  "commit": "18521c5"
}